{
  "contractName": "NETDay",
  "abi": [
    {
      "constant": true,
      "inputs": [],
      "name": "name",
      "outputs": [
        {
          "name": "",
          "type": "string"
        }
      ],
      "payable": false,
      "stateMutability": "view",
      "type": "function"
    },
    {
      "constant": false,
      "inputs": [
        {
          "name": "_spender",
          "type": "address"
        },
        {
          "name": "_value",
          "type": "uint256"
        }
      ],
      "name": "approve",
      "outputs": [
        {
          "name": "success",
          "type": "bool"
        }
      ],
      "payable": false,
      "stateMutability": "nonpayable",
      "type": "function"
    },
    {
      "constant": true,
      "inputs": [],
      "name": "startDate",
      "outputs": [
        {
          "name": "",
          "type": "uint256"
        }
      ],
      "payable": false,
      "stateMutability": "view",
      "type": "function"
    },
    {
      "constant": true,
      "inputs": [],
      "name": "totalSupply",
      "outputs": [
        {
          "name": "",
          "type": "uint256"
        }
      ],
      "payable": false,
      "stateMutability": "view",
      "type": "function"
    },
    {
      "constant": false,
      "inputs": [
        {
          "name": "_from",
          "type": "address"
        },
        {
          "name": "_to",
          "type": "address"
        },
        {
          "name": "_value",
          "type": "uint256"
        }
      ],
      "name": "transferFrom",
      "outputs": [
        {
          "name": "success",
          "type": "bool"
        }
      ],
      "payable": false,
      "stateMutability": "nonpayable",
      "type": "function"
    },
    {
      "constant": true,
      "inputs": [],
      "name": "decimals",
      "outputs": [
        {
          "name": "",
          "type": "uint8"
        }
      ],
      "payable": false,
      "stateMutability": "view",
      "type": "function"
    },
    {
      "constant": true,
      "inputs": [],
      "name": "bonusEnds",
      "outputs": [
        {
          "name": "",
          "type": "uint256"
        }
      ],
      "payable": false,
      "stateMutability": "view",
      "type": "function"
    },
    {
      "constant": false,
      "inputs": [
        {
          "name": "_value",
          "type": "uint256"
        }
      ],
      "name": "burn",
      "outputs": [
        {
          "name": "success",
          "type": "bool"
        }
      ],
      "payable": false,
      "stateMutability": "nonpayable",
      "type": "function"
    },
    {
      "constant": true,
      "inputs": [],
      "name": "bonusPrice",
      "outputs": [
        {
          "name": "",
          "type": "uint256"
        }
      ],
      "payable": false,
      "stateMutability": "view",
      "type": "function"
    },
    {
      "constant": true,
      "inputs": [
        {
          "name": "_owner",
          "type": "address"
        }
      ],
      "name": "balanceOf",
      "outputs": [
        {
          "name": "balance",
          "type": "uint256"
        }
      ],
      "payable": false,
      "stateMutability": "view",
      "type": "function"
    },
    {
      "constant": false,
      "inputs": [],
      "name": "acceptOwnership",
      "outputs": [],
      "payable": false,
      "stateMutability": "nonpayable",
      "type": "function"
    },
    {
      "constant": false,
      "inputs": [
        {
          "name": "_from",
          "type": "address"
        },
        {
          "name": "_value",
          "type": "uint256"
        }
      ],
      "name": "burnFrom",
      "outputs": [
        {
          "name": "success",
          "type": "bool"
        }
      ],
      "payable": false,
      "stateMutability": "nonpayable",
      "type": "function"
    },
    {
      "constant": true,
      "inputs": [],
      "name": "owner",
      "outputs": [
        {
          "name": "",
          "type": "address"
        }
      ],
      "payable": false,
      "stateMutability": "view",
      "type": "function"
    },
    {
      "constant": true,
      "inputs": [],
      "name": "normalPrice",
      "outputs": [
        {
          "name": "",
          "type": "uint256"
        }
      ],
      "payable": false,
      "stateMutability": "view",
      "type": "function"
    },
    {
      "constant": true,
      "inputs": [],
      "name": "symbol",
      "outputs": [
        {
          "name": "",
          "type": "string"
        }
      ],
      "payable": false,
      "stateMutability": "view",
      "type": "function"
    },
    {
      "constant": false,
      "inputs": [
        {
          "name": "_to",
          "type": "address"
        },
        {
          "name": "_value",
          "type": "uint256"
        }
      ],
      "name": "transfer",
      "outputs": [
        {
          "name": "success",
          "type": "bool"
        }
      ],
      "payable": false,
      "stateMutability": "nonpayable",
      "type": "function"
    },
    {
      "constant": true,
      "inputs": [],
      "name": "endDate",
      "outputs": [
        {
          "name": "",
          "type": "uint256"
        }
      ],
      "payable": false,
      "stateMutability": "view",
      "type": "function"
    },
    {
      "constant": false,
      "inputs": [
        {
          "name": "_spender",
          "type": "address"
        },
        {
          "name": "_value",
          "type": "uint256"
        },
        {
          "name": "_extraData",
          "type": "bytes"
        }
      ],
      "name": "approveAndCall",
      "outputs": [
        {
          "name": "success",
          "type": "bool"
        }
      ],
      "payable": false,
      "stateMutability": "nonpayable",
      "type": "function"
    },
    {
      "constant": true,
      "inputs": [],
      "name": "newOwner",
      "outputs": [
        {
          "name": "",
          "type": "address"
        }
      ],
      "payable": false,
      "stateMutability": "view",
      "type": "function"
    },
    {
      "constant": false,
      "inputs": [
        {
          "name": "tokenAddress",
          "type": "address"
        },
        {
          "name": "tokens",
          "type": "uint256"
        }
      ],
      "name": "transferAnyERC20Token",
      "outputs": [
        {
          "name": "success",
          "type": "bool"
        }
      ],
      "payable": false,
      "stateMutability": "nonpayable",
      "type": "function"
    },
    {
      "constant": true,
      "inputs": [
        {
          "name": "_owner",
          "type": "address"
        },
        {
          "name": "_spender",
          "type": "address"
        }
      ],
      "name": "allowance",
      "outputs": [
        {
          "name": "remaining",
          "type": "uint256"
        }
      ],
      "payable": false,
      "stateMutability": "view",
      "type": "function"
    },
    {
      "constant": false,
      "inputs": [
        {
          "name": "_newOwner",
          "type": "address"
        }
      ],
      "name": "transferOwnership",
      "outputs": [],
      "payable": false,
      "stateMutability": "nonpayable",
      "type": "function"
    },
    {
      "inputs": [],
      "payable": false,
      "stateMutability": "nonpayable",
      "type": "constructor"
    },
    {
      "payable": true,
      "stateMutability": "payable",
      "type": "fallback"
    },
    {
      "anonymous": false,
      "inputs": [
        {
          "indexed": true,
          "name": "from",
          "type": "address"
        },
        {
          "indexed": false,
          "name": "value",
          "type": "uint256"
        }
      ],
      "name": "Burn",
      "type": "event"
    },
    {
      "anonymous": false,
      "inputs": [
        {
          "indexed": true,
          "name": "_from",
          "type": "address"
        },
        {
          "indexed": true,
          "name": "_to",
          "type": "address"
        }
      ],
      "name": "OwnershipTransferred",
      "type": "event"
    },
    {
      "anonymous": false,
      "inputs": [
        {
          "indexed": true,
          "name": "_from",
          "type": "address"
        },
        {
          "indexed": true,
          "name": "_to",
          "type": "address"
        },
        {
          "indexed": false,
          "name": "_value",
          "type": "uint256"
        }
      ],
      "name": "Transfer",
      "type": "event"
    },
    {
      "anonymous": false,
      "inputs": [
        {
          "indexed": true,
          "name": "_owner",
          "type": "address"
        },
        {
          "indexed": true,
          "name": "_spender",
          "type": "address"
        },
        {
          "indexed": false,
          "name": "_value",
          "type": "uint256"
        }
      ],
      "name": "Approval",
      "type": "event"
    }
  ],
  "bytecode": "0x60806040523480156200001157600080fd5b5033600460006101000a81548173ffffffffffffffffffffffffffffffffffffffff021916908373ffffffffffffffffffffffffffffffffffffffff1602179055506040805190810160405280600c81526020017f4e455444617920546f6b656e000000000000000000000000000000000000000081525060009080519060200190620000a092919062000151565b506040805190810160405280600681526020017f4e4554446179000000000000000000000000000000000000000000000000000081525060019080519060200190620000ee92919062000151565b506012600260006101000a81548160ff021916908360ff1602179055506000600381905550635cde1d62600881905550620d2f00600854016009819055506301e1338060085401600c819055506064600a819055506096600b8190555062000200565b828054600181600116156101000203166002900490600052602060002090601f016020900481019282601f106200019457805160ff1916838001178555620001c5565b82800160010185558215620001c5579182015b82811115620001c4578251825591602001919060010190620001a7565b5b509050620001d49190620001d8565b5090565b620001fd91905b80821115620001f9576000816000905550600101620001df565b5090565b90565b611b2380620002106000396000f3fe608060405260043610610128576000357c0100000000000000000000000000000000000000000000000000000000900463ffffffff16806306fdde03146102b8578063095ea7b3146103485780630b97bc86146103bb57806318160ddd146103e657806323b872dd14610411578063313ce567146104a457806340c65003146104d557806342966c681461050057806365cf3a481461055357806370a082311461057e57806379ba5097146105e357806379cc6790146105fa5780638da5cb5b1461066d578063945ec9dd146106c457806395d89b41146106ef578063a9059cbb1461077f578063c24a0f8b146107f2578063cae9ca511461081d578063d4ee1d9014610927578063dc39d06d1461097e578063dd62ed3e146109f1578063f2fde38b14610a76575b600854421015801561013c5750600c544211155b151561014757600080fd5b60006009544211151561016057600b5434029050610168565b600a54340290505b80600660003373ffffffffffffffffffffffffffffffffffffffff1673ffffffffffffffffffffffffffffffffffffffff16815260200190815260200160002060008282540192505081905550806003600082825401925050819055503373ffffffffffffffffffffffffffffffffffffffff16600460009054906101000a900473ffffffffffffffffffffffffffffffffffffffff1673ffffffffffffffffffffffffffffffffffffffff167fddf252ad1be2c89b69c2b068fc378daa952ba7f163c4a11628f55a4df523b3ef836040518082815260200191505060405180910390a3600460009054906101000a900473ffffffffffffffffffffffffffffffffffffffff1673ffffffffffffffffffffffffffffffffffffffff166108fc349081150290604051600060405180830381858888f193505050501580156102b4573d6000803e3d6000fd5b5050005b3480156102c457600080fd5b506102cd610ac7565b6040518080602001828103825283818151815260200191508051906020019080838360005b8381101561030d5780820151818401526020810190506102f2565b50505050905090810190601f16801561033a5780820380516001836020036101000a031916815260200191505b509250505060405180910390f35b34801561035457600080fd5b506103a16004803603604081101561036b57600080fd5b81019080803573ffffffffffffffffffffffffffffffffffffffff16906020019092919080359060200190929190505050610b65565b604051808215151515815260200191505060405180910390f35b3480156103c757600080fd5b506103d0610c57565b6040518082815260200191505060405180910390f35b3480156103f257600080fd5b506103fb610c5d565b6040518082815260200191505060405180910390f35b34801561041d57600080fd5b5061048a6004803603606081101561043457600080fd5b81019080803573ffffffffffffffffffffffffffffffffffffffff169060200190929190803573ffffffffffffffffffffffffffffffffffffffff16906020019092919080359060200190929190505050610c63565b604051808215151515815260200191505060405180910390f35b3480156104b057600080fd5b506104b9610d90565b604051808260ff1660ff16815260200191505060405180910390f35b3480156104e157600080fd5b506104ea610da3565b6040518082815260200191505060405180910390f35b34801561050c57600080fd5b506105396004803603602081101561052357600080fd5b8101908080359060200190929190505050610da9565b604051808215151515815260200191505060405180910390f35b34801561055f57600080fd5b50610568610ead565b6040518082815260200191505060405180910390f35b34801561058a57600080fd5b506105cd600480360360208110156105a157600080fd5b81019080803573ffffffffffffffffffffffffffffffffffffffff169060200190929190505050610eb3565b6040518082815260200191505060405180910390f35b3480156105ef57600080fd5b506105f8610efc565b005b34801561060657600080fd5b506106536004803603604081101561061d57600080fd5b81019080803573ffffffffffffffffffffffffffffffffffffffff1690602001909291908035906020019092919050505061109d565b604051808215151515815260200191505060405180910390f35b34801561067957600080fd5b506106826112b7565b604051808273ffffffffffffffffffffffffffffffffffffffff1673ffffffffffffffffffffffffffffffffffffffff16815260200191505060405180910390f35b3480156106d057600080fd5b506106d96112dd565b6040518082815260200191505060405180910390f35b3480156106fb57600080fd5b506107046112e3565b6040518080602001828103825283818151815260200191508051906020019080838360005b83811015610744578082015181840152602081019050610729565b50505050905090810190601f1680156107715780820380516001836020036101000a031916815260200191505b509250505060405180910390f35b34801561078b57600080fd5b506107d8600480360360408110156107a257600080fd5b81019080803573ffffffffffffffffffffffffffffffffffffffff16906020019092919080359060200190929190505050611381565b604051808215151515815260200191505060405180910390f35b3480156107fe57600080fd5b50610807611398565b6040518082815260200191505060405180910390f35b34801561082957600080fd5b5061090d6004803603606081101561084057600080fd5b81019080803573ffffffffffffffffffffffffffffffffffffffff169060200190929190803590602001909291908035906020019064010000000081111561088757600080fd5b82018360208201111561089957600080fd5b803590602001918460018302840111640100000000831117156108bb57600080fd5b91908080601f016020809104026020016040519081016040528093929190818152602001838380828437600081840152601f19601f82011690508083019250505050505050919291929050505061139e565b604051808215151515815260200191505060405180910390f35b34801561093357600080fd5b5061093c611517565b604051808273ffffffffffffffffffffffffffffffffffffffff1673ffffffffffffffffffffffffffffffffffffffff16815260200191505060405180910390f35b34801561098a57600080fd5b506109d7600480360360408110156109a157600080fd5b81019080803573ffffffffffffffffffffffffffffffffffffffff1690602001909291908035906020019092919050505061153d565b604051808215151515815260200191505060405180910390f35b3480156109fd57600080fd5b50610a6060048036036040811015610a1457600080fd5b81019080803573ffffffffffffffffffffffffffffffffffffffff169060200190929190803573ffffffffffffffffffffffffffffffffffffffff1690602001909291905050506116a3565b6040518082815260200191505060405180910390f35b348015610a8257600080fd5b50610ac560048036036020811015610a9957600080fd5b81019080803573ffffffffffffffffffffffffffffffffffffffff16906020019092919050505061172a565b005b60008054600181600116156101000203166002900480601f016020809104026020016040519081016040528092919081815260200182805460018160011615610100020316600290048015610b5d5780601f10610b3257610100808354040283529160200191610b5d565b820191906000526020600020905b815481529060010190602001808311610b4057829003601f168201915b505050505081565b600081600760003373ffffffffffffffffffffffffffffffffffffffff1673ffffffffffffffffffffffffffffffffffffffff16815260200190815260200160002060008573ffffffffffffffffffffffffffffffffffffffff1673ffffffffffffffffffffffffffffffffffffffff168152602001908152602001600020819055508273ffffffffffffffffffffffffffffffffffffffff163373ffffffffffffffffffffffffffffffffffffffff167f8c5be1e5ebec7d5bd14f71427d1e84f3dd0314c0f7b2291e5b200ac8c7c3b925846040518082815260200191505060405180910390a36001905092915050565b60085481565b60035481565b6000600760008573ffffffffffffffffffffffffffffffffffffffff1673ffffffffffffffffffffffffffffffffffffffff16815260200190815260200160002060003373ffffffffffffffffffffffffffffffffffffffff1673ffffffffffffffffffffffffffffffffffffffff168152602001908152602001600020548211151515610cf057600080fd5b81600760008673ffffffffffffffffffffffffffffffffffffffff1673ffffffffffffffffffffffffffffffffffffffff16815260200190815260200160002060003373ffffffffffffffffffffffffffffffffffffffff1673ffffffffffffffffffffffffffffffffffffffff16815260200190815260200160002060008282540392505081905550610d858484846117ca565b600190509392505050565b600260009054906101000a900460ff1681565b60095481565b600081600660003373ffffffffffffffffffffffffffffffffffffffff1673ffffffffffffffffffffffffffffffffffffffff1681526020019081526020016000205410151515610df957600080fd5b81600660003373ffffffffffffffffffffffffffffffffffffffff1673ffffffffffffffffffffffffffffffffffffffff16815260200190815260200160002060008282540392505081905550816003600082825403925050819055503373ffffffffffffffffffffffffffffffffffffffff167fcc16f5dbb4873280815c1ee09dbd06736cffcc184412cf7a71a0fdb75d397ca5836040518082815260200191505060405180910390a260019050919050565b600b5481565b6000600660008373ffffffffffffffffffffffffffffffffffffffff1673ffffffffffffffffffffffffffffffffffffffff168152602001908152602001600020549050919050565b600560009054906101000a900473ffffffffffffffffffffffffffffffffffffffff1673ffffffffffffffffffffffffffffffffffffffff163373ffffffffffffffffffffffffffffffffffffffff16141515610f5857600080fd5b600560009054906101000a900473ffffffffffffffffffffffffffffffffffffffff1673ffffffffffffffffffffffffffffffffffffffff16600460009054906101000a900473ffffffffffffffffffffffffffffffffffffffff1673ffffffffffffffffffffffffffffffffffffffff167f8be0079c531659141344cd1fd0a4f28419497f9722a3daafe3b4186f6b6457e060405160405180910390a3600560009054906101000a900473ffffffffffffffffffffffffffffffffffffffff16600460006101000a81548173ffffffffffffffffffffffffffffffffffffffff021916908373ffffffffffffffffffffffffffffffffffffffff1602179055506000600560006101000a81548173ffffffffffffffffffffffffffffffffffffffff021916908373ffffffffffffffffffffffffffffffffffffffff160217905550565b600081600660008573ffffffffffffffffffffffffffffffffffffffff1673ffffffffffffffffffffffffffffffffffffffff16815260200190815260200160002054101515156110ed57600080fd5b600760008473ffffffffffffffffffffffffffffffffffffffff1673ffffffffffffffffffffffffffffffffffffffff16815260200190815260200160002060003373ffffffffffffffffffffffffffffffffffffffff1673ffffffffffffffffffffffffffffffffffffffff16815260200190815260200160002054821115151561117857600080fd5b81600660008573ffffffffffffffffffffffffffffffffffffffff1673ffffffffffffffffffffffffffffffffffffffff1681526020019081526020016000206000828254039250508190555081600760008573ffffffffffffffffffffffffffffffffffffffff1673ffffffffffffffffffffffffffffffffffffffff16815260200190815260200160002060003373ffffffffffffffffffffffffffffffffffffffff1673ffffffffffffffffffffffffffffffffffffffff16815260200190815260200160002060008282540392505081905550816003600082825403925050819055508273ffffffffffffffffffffffffffffffffffffffff167fcc16f5dbb4873280815c1ee09dbd06736cffcc184412cf7a71a0fdb75d397ca5836040518082815260200191505060405180910390a26001905092915050565b600460009054906101000a900473ffffffffffffffffffffffffffffffffffffffff1681565b600a5481565b60018054600181600116156101000203166002900480601f0160208091040260200160405190810160405280929190818152602001828054600181600116156101000203166002900480156113795780601f1061134e57610100808354040283529160200191611379565b820191906000526020600020905b81548152906001019060200180831161135c57829003601f168201915b505050505081565b600061138e3384846117ca565b6001905092915050565b600c5481565b6000808490506113ae8585610b65565b508073ffffffffffffffffffffffffffffffffffffffff16638f4ffcb1338630876040518563ffffffff167c0100000000000000000000000000000000000000000000000000000000028152600401808573ffffffffffffffffffffffffffffffffffffffff1673ffffffffffffffffffffffffffffffffffffffff1681526020018481526020018373ffffffffffffffffffffffffffffffffffffffff1673ffffffffffffffffffffffffffffffffffffffff16815260200180602001828103825283818151815260200191508051906020019080838360005b838110156114a4578082015181840152602081019050611489565b50505050905090810190601f1680156114d15780820380516001836020036101000a031916815260200191505b5095505050505050600060405180830381600087803b1580156114f357600080fd5b505af1158015611507573d6000803e3d6000fd5b5050505060019150509392505050565b600560009054906101000a900473ffffffffffffffffffffffffffffffffffffffff1681565b6000600460009054906101000a900473ffffffffffffffffffffffffffffffffffffffff1673ffffffffffffffffffffffffffffffffffffffff163373ffffffffffffffffffffffffffffffffffffffff1614151561159b57600080fd5b8273ffffffffffffffffffffffffffffffffffffffff1663a9059cbb600460009054906101000a900473ffffffffffffffffffffffffffffffffffffffff16846040518363ffffffff167c0100000000000000000000000000000000000000000000000000000000028152600401808373ffffffffffffffffffffffffffffffffffffffff1673ffffffffffffffffffffffffffffffffffffffff16815260200182815260200192505050602060405180830381600087803b15801561166057600080fd5b505af1158015611674573d6000803e3d6000fd5b505050506040513d602081101561168a57600080fd5b8101908080519060200190929190505050905092915050565b6000600760008473ffffffffffffffffffffffffffffffffffffffff1673ffffffffffffffffffffffffffffffffffffffff16815260200190815260200160002060008373ffffffffffffffffffffffffffffffffffffffff1673ffffffffffffffffffffffffffffffffffffffff16815260200190815260200160002054905092915050565b600460009054906101000a900473ffffffffffffffffffffffffffffffffffffffff1673ffffffffffffffffffffffffffffffffffffffff163373ffffffffffffffffffffffffffffffffffffffff1614151561178657600080fd5b80600560006101000a81548173ffffffffffffffffffffffffffffffffffffffff021916908373ffffffffffffffffffffffffffffffffffffffff16021790555050565b600073ffffffffffffffffffffffffffffffffffffffff168273ffffffffffffffffffffffffffffffffffffffff161415151561180657600080fd5b80600660008573ffffffffffffffffffffffffffffffffffffffff1673ffffffffffffffffffffffffffffffffffffffff168152602001908152602001600020541015151561185457600080fd5b600660008373ffffffffffffffffffffffffffffffffffffffff1673ffffffffffffffffffffffffffffffffffffffff1681526020019081526020016000205481600660008573ffffffffffffffffffffffffffffffffffffffff1673ffffffffffffffffffffffffffffffffffffffff16815260200190815260200160002054011115156118e257600080fd5b6000600660008473ffffffffffffffffffffffffffffffffffffffff1673ffffffffffffffffffffffffffffffffffffffff16815260200190815260200160002054600660008673ffffffffffffffffffffffffffffffffffffffff1673ffffffffffffffffffffffffffffffffffffffff1681526020019081526020016000205401905081600660008673ffffffffffffffffffffffffffffffffffffffff1673ffffffffffffffffffffffffffffffffffffffff1681526020019081526020016000206000828254039250508190555081600660008573ffffffffffffffffffffffffffffffffffffffff1673ffffffffffffffffffffffffffffffffffffffff168152602001908152602001600020600082825401925050819055508273ffffffffffffffffffffffffffffffffffffffff168473ffffffffffffffffffffffffffffffffffffffff167fddf252ad1be2c89b69c2b068fc378daa952ba7f163c4a11628f55a4df523b3ef846040518082815260200191505060405180910390a380600660008573ffffffffffffffffffffffffffffffffffffffff1673ffffffffffffffffffffffffffffffffffffffff16815260200190815260200160002054600660008773ffffffffffffffffffffffffffffffffffffffff1673ffffffffffffffffffffffffffffffffffffffff1681526020019081526020016000205401141515611af157fe5b5050505056fea165627a7a723058206e05044f8b9e5cb1b20ac01c7190af5cbbdba401636ddb3cfcd60d96f8cc242c0029",
  "source": "pragma solidity >=0.5.0 <0.7.0;\n\n/**\nICO CrowdSale token contract\n\nABSTRACT\nStart date      : Friday, May 17, 2019 9:33:06 AM GMT+07:00\nBonus end date  : Start date + 10 days\nEnd date        : Start date + 365 days\nNormal price    : 100 NETDay Tokens per 1 ETH\nBonus price     : 150 NETDay Tokens per 1 ETH\n\nTOKEN DETAIL\nSymbol          : NETDay\nName            : NETDay Token\nDecimals        : 18\n\n@ beesightsoft MIT license\n */\n\n// ---------------------------------------------------------------------\n// ERC-20 Token Standard Interface\n// https://github.com/ethereum/EIPs/blob/master/EIPS/eip-20.md\n// ---------------------------------------------------------------------\ncontract ERC20Interface {\n  /**\n  Returns the name of the token - e.g. \"MyToken\"\n   */\n  string public name;\n  /**\n  Returns the symbol of the token. E.g. \"HIX\".\n   */\n  string public symbol;\n  /**\n  Returns the number of decimals the token uses - e. g. 8\n   */\n  uint8 public decimals;\n  /**\n  Returns the total token supply.\n   */\n  uint256 public totalSupply;\n  /**\n  Returns the account balance of another account with address _owner.\n   */\n  function balanceOf(address _owner) public view returns (uint256 balance);\n  /**\n  Transfers _value amount of tokens to address _to, and MUST fire the Transfer event. \n  The function SHOULD throw if the _from account balance does not have enough tokens to spend.\n   */\n  function transfer(address _to, uint256 _value) public returns (bool success);\n  /**\n  Transfers _value amount of tokens from address _from to address _to, and MUST fire the Transfer event.\n   */\n  function transferFrom(address _from, address _to, uint256 _value) public returns (bool success);\n  /**\n  Allows _spender to withdraw from your account multiple times, up to the _value amount. \n  If this function is called again it overwrites the current allowance with _value.\n   */\n  function approve(address _spender, uint256 _value) public returns (bool success);\n  /**\n  Returns the amount which _spender is still allowed to withdraw from _owner.\n   */\n  function allowance(address _owner, address _spender) public view returns (uint256 remaining);\n  /**\n  MUST trigger when tokens are transferred, including zero value transfers.\n   */\n  event Transfer(address indexed _from, address indexed _to, uint256 _value);\n  /**\n  MUST trigger on any successful call to approve(address _spender, uint256 _value).\n    */\n  event Approval(address indexed _owner, address indexed _spender, uint256 _value);\n}\n\n/**\nOwned contract\n */\ncontract Owned {\n  address payable public owner;\n  address payable public newOwner;\n\n  event OwnershipTransferred(address indexed _from, address indexed _to);\n\n  constructor () public {\n    owner = msg.sender;\n  }\n\n  modifier onlyOwner {\n    require(msg.sender == owner);\n    _;\n  }\n\n  function transferOwnership(address payable _newOwner) public onlyOwner {\n    newOwner = _newOwner;\n  }\n\n  function acceptOwnership() public {\n    require(msg.sender == newOwner);\n    emit OwnershipTransferred(owner, newOwner);\n    owner = newOwner;\n    newOwner = address(0);\n  }\n}\n\n/**\nFunction to receive approval and execute function in one call.\n */\ncontract TokenRecipient { \n  function receiveApproval(address _from, uint256 _value, address _token, bytes memory _extraData) public; \n}\n\n/**\nToken implement\n */\ncontract Token is ERC20Interface, Owned {\n\n  mapping (address => uint256) _balances;\n  mapping (address => mapping (address => uint256)) _allowed;\n  \n  // This notifies clients about the amount burnt\n  event Burn(address indexed from, uint256 value);\n  \n  function balanceOf(address _owner) public view returns (uint256 balance) {\n    return _balances[_owner];\n  }\n\n  function transfer(address _to, uint256 _value) public returns (bool success) {\n    _transfer(msg.sender, _to, _value);\n    return true;\n  }\n\n  function transferFrom(address _from, address _to, uint256 _value) public returns (bool success) {\n    require(_value <= _allowed[_from][msg.sender]); \n    _allowed[_from][msg.sender] -= _value;\n    _transfer(_from, _to, _value);\n    return true;\n  }\n\n  function approve(address _spender, uint256 _value) public returns (bool success) {\n    _allowed[msg.sender][_spender] = _value;\n    emit Approval(msg.sender, _spender, _value);\n    return true;\n  }\n\n  function allowance(address _owner, address _spender) public view returns (uint256 remaining) {\n    return _allowed[_owner][_spender];\n  }\n\n  /**\n  Owner can transfer out any accidentally sent ERC20 tokens\n   */\n  function transferAnyERC20Token(address tokenAddress, uint tokens) public onlyOwner returns (bool success) {\n    return ERC20Interface(tokenAddress).transfer(owner, tokens);\n  }\n\n  /**\n  Approves and then calls the receiving contract\n   */\n  function approveAndCall(address _spender, uint256 _value, bytes memory _extraData) public returns (bool success) {\n    TokenRecipient spender = TokenRecipient(_spender);\n    approve(_spender, _value);\n    spender.receiveApproval(msg.sender, _value, address(this), _extraData);\n    return true;\n  }\n\n  /**\n  Destroy tokens.\n  Remove `_value` tokens from the system irreversibly\n    */\n  function burn(uint256 _value) public returns (bool success) {\n    require(_balances[msg.sender] >= _value);\n    _balances[msg.sender] -= _value;\n    totalSupply -= _value;\n    emit Burn(msg.sender, _value);\n    return true;\n  }\n\n  /**\n  Destroy tokens from other account.\n  Remove `_value` tokens from the system irreversibly on behalf of `_from`.\n    */\n  function burnFrom(address _from, uint256 _value) public returns (bool success) {\n    require(_balances[_from] >= _value);\n    require(_value <= _allowed[_from][msg.sender]);\n    _balances[_from] -= _value;\n    _allowed[_from][msg.sender] -= _value;\n    totalSupply -= _value;\n    emit Burn(_from, _value);\n    return true;\n  }\n\n  /**\n  Internal transfer, only can be called by this contract\n    */\n  function _transfer(address _from, address _to, uint _value) internal {\n    // Prevent transfer to 0x0 address. Use burn() instead\n    require(_to != address(0x0));\n    // Check if the sender has enough\n    require(_balances[_from] >= _value);\n    // Check for overflows\n    require(_balances[_to] + _value > _balances[_to]);\n    // Save this for an assertion in the future\n    uint previousBalances = _balances[_from] + _balances[_to];\n    // Subtract from the sender\n    _balances[_from] -= _value;\n    // Add the same to the recipient\n    _balances[_to] += _value;\n    emit Transfer(_from, _to, _value);\n    // Asserts are used to use static analysis to find bugs in your code. They should never fail\n    assert(_balances[_from] + _balances[_to] == previousBalances);\n  }\n\n}\n\ncontract NETDay is Token {\n\n  uint public startDate;\n  uint public bonusEnds;\n  uint public normalPrice;\n  uint public bonusPrice;\n  uint public endDate;\n\n  constructor () public {\n    name = \"NETDay Token\";\n    symbol = \"NETDay\";\n    // 1ETH = 1e18 wei\n    decimals = 18;\n    totalSupply = 0;\n\n    startDate = 1558060386;\n    bonusEnds = startDate + 10 days;\n    endDate = startDate + 365 days;\n\n    normalPrice = 100;\n    bonusPrice = 150;\n  }\n\n  /**\n  If ether is sent to this address, send it back.\n   */\n  function () external payable {\n    require(now >= startDate && now <= endDate);\n    uint tokens;\n    if (now <= bonusEnds) {\n      tokens = msg.value * bonusPrice;\n    } else {\n      tokens = msg.value * normalPrice;\n    }\n    _balances[msg.sender] += tokens;\n    totalSupply += tokens;\n    emit Transfer(owner, msg.sender, tokens);\n    owner.transfer(msg.value);\n  }\n\n}",
  "sourcePath": "/Volumes/Data/Projects/bss/bss-blockchain-netday/truffle/ICOCrowdsale/contracts/NETDay.sol",
  "compiler": {
    "name": "solc",
    "version": "0.5.0+commit.1d4f565a.Emscripten.clang"
  },
  "schemaVersion": "3.0.9",
  "updatedAt": "2019-05-17T06:09:18.161Z",
  "devdoc": {
    "methods": {}
  },
  "userdoc": {
    "methods": {
      "approveAndCall(address,uint256,bytes)": {
        "notice": "Approves and then calls the receiving contract"
      },
      "burn(uint256)": {
        "notice": "Destroy tokens. Remove `_value` tokens from the system irreversibly"
      },
      "burnFrom(address,uint256)": {
        "notice": "Destroy tokens from other account. Remove `_value` tokens from the system irreversibly on behalf of `_from`."
      },
      "transferAnyERC20Token(address,uint256)": {
        "notice": "Owner can transfer out any accidentally sent ERC20 tokens"
      }
    }
  }
}