{
  "contractName": "Owned",
  "abi": [
    {
      "constant": true,
      "inputs": [],
      "name": "owner",
      "outputs": [
        {
          "name": "",
          "type": "address"
        }
      ],
      "payable": false,
      "stateMutability": "view",
      "type": "function"
    },
    {
      "constant": true,
      "inputs": [],
      "name": "newOwner",
      "outputs": [
        {
          "name": "",
          "type": "address"
        }
      ],
      "payable": false,
      "stateMutability": "view",
      "type": "function"
    },
    {
      "inputs": [],
      "payable": false,
      "stateMutability": "nonpayable",
      "type": "constructor"
    },
    {
      "anonymous": false,
      "inputs": [
        {
          "indexed": true,
          "name": "_from",
          "type": "address"
        },
        {
          "indexed": true,
          "name": "_to",
          "type": "address"
        }
      ],
      "name": "OwnershipTransferred",
      "type": "event"
    },
    {
      "constant": false,
      "inputs": [
        {
          "name": "_newOwner",
          "type": "address"
        }
      ],
      "name": "transferOwnership",
      "outputs": [],
      "payable": false,
      "stateMutability": "nonpayable",
      "type": "function"
    },
    {
      "constant": false,
      "inputs": [],
      "name": "acceptOwnership",
      "outputs": [],
      "payable": false,
      "stateMutability": "nonpayable",
      "type": "function"
    }
  ],
  "bytecode": "0x608060405234801561001057600080fd5b50336000806101000a81548173ffffffffffffffffffffffffffffffffffffffff021916908373ffffffffffffffffffffffffffffffffffffffff160217905550610432806100606000396000f3fe608060405260043610610062576000357c0100000000000000000000000000000000000000000000000000000000900463ffffffff16806379ba5097146100675780638da5cb5b1461007e578063d4ee1d90146100d5578063f2fde38b1461012c575b600080fd5b34801561007357600080fd5b5061007c61017d565b005b34801561008a57600080fd5b5061009361031c565b604051808273ffffffffffffffffffffffffffffffffffffffff1673ffffffffffffffffffffffffffffffffffffffff16815260200191505060405180910390f35b3480156100e157600080fd5b506100ea610341565b604051808273ffffffffffffffffffffffffffffffffffffffff1673ffffffffffffffffffffffffffffffffffffffff16815260200191505060405180910390f35b34801561013857600080fd5b5061017b6004803603602081101561014f57600080fd5b81019080803573ffffffffffffffffffffffffffffffffffffffff169060200190929190505050610367565b005b600160009054906101000a900473ffffffffffffffffffffffffffffffffffffffff1673ffffffffffffffffffffffffffffffffffffffff163373ffffffffffffffffffffffffffffffffffffffff161415156101d957600080fd5b600160009054906101000a900473ffffffffffffffffffffffffffffffffffffffff1673ffffffffffffffffffffffffffffffffffffffff166000809054906101000a900473ffffffffffffffffffffffffffffffffffffffff1673ffffffffffffffffffffffffffffffffffffffff167f8be0079c531659141344cd1fd0a4f28419497f9722a3daafe3b4186f6b6457e060405160405180910390a3600160009054906101000a900473ffffffffffffffffffffffffffffffffffffffff166000806101000a81548173ffffffffffffffffffffffffffffffffffffffff021916908373ffffffffffffffffffffffffffffffffffffffff1602179055506000600160006101000a81548173ffffffffffffffffffffffffffffffffffffffff021916908373ffffffffffffffffffffffffffffffffffffffff160217905550565b6000809054906101000a900473ffffffffffffffffffffffffffffffffffffffff1681565b600160009054906101000a900473ffffffffffffffffffffffffffffffffffffffff1681565b6000809054906101000a900473ffffffffffffffffffffffffffffffffffffffff1673ffffffffffffffffffffffffffffffffffffffff163373ffffffffffffffffffffffffffffffffffffffff161415156103c257600080fd5b80600160006101000a81548173ffffffffffffffffffffffffffffffffffffffff021916908373ffffffffffffffffffffffffffffffffffffffff1602179055505056fea165627a7a72305820ba5b42dfb4d078ec823a097278e26e2183ecf461108a55b2ac0d5fd13ee1f65b0029",
  "source": "pragma solidity >=0.5.0 <0.7.0;\n\n/**\nBeeSightSoft token\n\nSymbol          : BSS\nName            : BeeSight Soft\nTotal supply    : 1000000000\nDecimals        : 0\n\n@ beesightsoft MIT license\n */\n\n// ---------------------------------------------------------------------\n// ERC-20 Token Standard Interface\n// https://github.com/ethereum/EIPs/blob/master/EIPS/eip-20.md\n// ---------------------------------------------------------------------\ncontract ERC20Interface {\n  /**\n  Returns the name of the token - e.g. \"MyToken\"\n   */\n  string public name;\n  /**\n  Returns the symbol of the token. E.g. \"HIX\".\n   */\n  string public symbol;\n  /**\n  Returns the number of decimals the token uses - e. g. 8\n   */\n  uint8 public decimals;\n  /**\n  Returns the total token supply.\n   */\n  uint256 public totalSupply;\n  /**\n  Returns the account balance of another account with address _owner.\n   */\n  function balanceOf(address _owner) public view returns (uint256 balance);\n  /**\n  Transfers _value amount of tokens to address _to, and MUST fire the Transfer event. \n  The function SHOULD throw if the _from account balance does not have enough tokens to spend.\n   */\n  function transfer(address _to, uint256 _value) public returns (bool success);\n  /**\n  Transfers _value amount of tokens from address _from to address _to, and MUST fire the Transfer event.\n   */\n  function transferFrom(address _from, address _to, uint256 _value) public returns (bool success);\n  /**\n  Allows _spender to withdraw from your account multiple times, up to the _value amount. \n  If this function is called again it overwrites the current allowance with _value.\n   */\n  function approve(address _spender, uint256 _value) public returns (bool success);\n  /**\n  Returns the amount which _spender is still allowed to withdraw from _owner.\n   */\n  function allowance(address _owner, address _spender) public view returns (uint256 remaining);\n  /**\n  MUST trigger when tokens are transferred, including zero value transfers.\n   */\n  event Transfer(address indexed _from, address indexed _to, uint256 _value);\n  /**\n  MUST trigger on any successful call to approve(address _spender, uint256 _value).\n    */\n  event Approval(address indexed _owner, address indexed _spender, uint256 _value);\n}\n\n/**\nOwned contract\n */\ncontract Owned {\n  address public owner;\n  address public newOwner;\n\n  event OwnershipTransferred(address indexed _from, address indexed _to);\n\n  constructor () public {\n    owner = msg.sender;\n  }\n\n  modifier onlyOwner {\n    require(msg.sender == owner);\n    _;\n  }\n\n  function transferOwnership(address _newOwner) public onlyOwner {\n    newOwner = _newOwner;\n  }\n\n  function acceptOwnership() public {\n    require(msg.sender == newOwner);\n    emit OwnershipTransferred(owner, newOwner);\n    owner = newOwner;\n    newOwner = address(0);\n  }\n}\n\n/**\nFunction to receive approval and execute function in one call.\n */\ncontract TokenRecipient { \n  function receiveApproval(address _from, uint256 _value, address _token, bytes memory _extraData) public; \n}\n\n/**\nToken implement\n */\ncontract Token is ERC20Interface, Owned {\n\n  mapping (address => uint256) _balances;\n  mapping (address => mapping (address => uint256)) _allowed;\n  \n  // This notifies clients about the amount burnt\n  event Burn(address indexed from, uint256 value);\n  \n  function balanceOf(address _owner) public view returns (uint256 balance) {\n    return _balances[_owner];\n  }\n\n  function transfer(address _to, uint256 _value) public returns (bool success) {\n    _transfer(msg.sender, _to, _value);\n    return true;\n  }\n\n  function transferFrom(address _from, address _to, uint256 _value) public returns (bool success) {\n    require(_value <= _allowed[_from][msg.sender]); \n    _allowed[_from][msg.sender] -= _value;\n    _transfer(_from, _to, _value);\n    return true;\n  }\n\n  function approve(address _spender, uint256 _value) public returns (bool success) {\n    _allowed[msg.sender][_spender] = _value;\n    emit Approval(msg.sender, _spender, _value);\n    return true;\n  }\n\n  function allowance(address _owner, address _spender) public view returns (uint256 remaining) {\n    return _allowed[_owner][_spender];\n  }\n\n  /**\n  Owner can transfer out any accidentally sent ERC20 tokens\n   */\n  function transferAnyERC20Token(address tokenAddress, uint tokens) public onlyOwner returns (bool success) {\n    return ERC20Interface(tokenAddress).transfer(owner, tokens);\n  }\n\n  /**\n  Approves and then calls the receiving contract\n   */\n  function approveAndCall(address _spender, uint256 _value, bytes memory _extraData) public returns (bool success) {\n    TokenRecipient spender = TokenRecipient(_spender);\n    approve(_spender, _value);\n    spender.receiveApproval(msg.sender, _value, address(this), _extraData);\n    return true;\n  }\n\n  /**\n  Destroy tokens.\n  Remove `_value` tokens from the system irreversibly\n    */\n  function burn(uint256 _value) public returns (bool success) {\n    require(_balances[msg.sender] >= _value);\n    _balances[msg.sender] -= _value;\n    totalSupply -= _value;\n    emit Burn(msg.sender, _value);\n    return true;\n  }\n\n  /**\n  Destroy tokens from other account.\n  Remove `_value` tokens from the system irreversibly on behalf of `_from`.\n    */\n  function burnFrom(address _from, uint256 _value) public returns (bool success) {\n    require(_balances[_from] >= _value);\n    require(_value <= _allowed[_from][msg.sender]);\n    _balances[_from] -= _value;\n    _allowed[_from][msg.sender] -= _value;\n    totalSupply -= _value;\n    emit Burn(_from, _value);\n    return true;\n  }\n\n  /**\n  Internal transfer, only can be called by this contract\n    */\n  function _transfer(address _from, address _to, uint _value) internal {\n    // Prevent transfer to 0x0 address. Use burn() instead\n    require(_to != address(0x0));\n    // Check if the sender has enough\n    require(_balances[_from] >= _value);\n    // Check for overflows\n    require(_balances[_to] + _value > _balances[_to]);\n    // Save this for an assertion in the future\n    uint previousBalances = _balances[_from] + _balances[_to];\n    // Subtract from the sender\n    _balances[_from] -= _value;\n    // Add the same to the recipient\n    _balances[_to] += _value;\n    emit Transfer(_from, _to, _value);\n    // Asserts are used to use static analysis to find bugs in your code. They should never fail\n    assert(_balances[_from] + _balances[_to] == previousBalances);\n  }\n\n}\n\ncontract BeeSightSoft is Token {\n\n  constructor () public {\n    name = \"BeeSight Soft\";\n    symbol = \"BSS\";\n    decimals = 0;\n    totalSupply = 1000000000;\n    _balances[msg.sender] = totalSupply;\n  }\n\n  /**\n  If ether is sent to this address, send it back.\n   */\n  function () external payable {\n    revert();\n  }\n\n}",
  "sourcePath": "/Volumes/Data/Projects/bss/bss-blockchain-netday/truffle/BeeSightSoftToken/contracts/BeeSightSoft.sol",
  "compiler": {
    "name": "solc",
    "version": "0.5.0+commit.1d4f565a.Emscripten.clang"
  },
  "schemaVersion": "3.0.9",
  "updatedAt": "2019-05-16T18:19:20.201Z",
  "devdoc": {
    "methods": {}
  },
  "userdoc": {
    "methods": {},
    "notice": "Owned contract"
  }
}