{
  "contractName": "Owned",
  "abi": [
    {
      "constant": true,
      "inputs": [],
      "name": "owner",
      "outputs": [
        {
          "name": "",
          "type": "address"
        }
      ],
      "payable": false,
      "stateMutability": "view",
      "type": "function"
    },
    {
      "constant": true,
      "inputs": [],
      "name": "newOwner",
      "outputs": [
        {
          "name": "",
          "type": "address"
        }
      ],
      "payable": false,
      "stateMutability": "view",
      "type": "function"
    },
    {
      "inputs": [],
      "payable": false,
      "stateMutability": "nonpayable",
      "type": "constructor"
    },
    {
      "anonymous": false,
      "inputs": [
        {
          "indexed": true,
          "name": "_from",
          "type": "address"
        },
        {
          "indexed": true,
          "name": "_to",
          "type": "address"
        }
      ],
      "name": "OwnershipTransferred",
      "type": "event"
    },
    {
      "constant": false,
      "inputs": [
        {
          "name": "_newOwner",
          "type": "address"
        }
      ],
      "name": "transferOwnership",
      "outputs": [],
      "payable": false,
      "stateMutability": "nonpayable",
      "type": "function"
    },
    {
      "constant": false,
      "inputs": [],
      "name": "acceptOwnership",
      "outputs": [],
      "payable": false,
      "stateMutability": "nonpayable",
      "type": "function"
    }
  ],
  "bytecode": "0x608060405234801561001057600080fd5b50336000806101000a81548173ffffffffffffffffffffffffffffffffffffffff021916908373ffffffffffffffffffffffffffffffffffffffff160217905550610432806100606000396000f3fe608060405260043610610062576000357c0100000000000000000000000000000000000000000000000000000000900463ffffffff16806379ba5097146100675780638da5cb5b1461007e578063d4ee1d90146100d5578063f2fde38b1461012c575b600080fd5b34801561007357600080fd5b5061007c61017d565b005b34801561008a57600080fd5b5061009361031c565b604051808273ffffffffffffffffffffffffffffffffffffffff1673ffffffffffffffffffffffffffffffffffffffff16815260200191505060405180910390f35b3480156100e157600080fd5b506100ea610341565b604051808273ffffffffffffffffffffffffffffffffffffffff1673ffffffffffffffffffffffffffffffffffffffff16815260200191505060405180910390f35b34801561013857600080fd5b5061017b6004803603602081101561014f57600080fd5b81019080803573ffffffffffffffffffffffffffffffffffffffff169060200190929190505050610367565b005b600160009054906101000a900473ffffffffffffffffffffffffffffffffffffffff1673ffffffffffffffffffffffffffffffffffffffff163373ffffffffffffffffffffffffffffffffffffffff161415156101d957600080fd5b600160009054906101000a900473ffffffffffffffffffffffffffffffffffffffff1673ffffffffffffffffffffffffffffffffffffffff166000809054906101000a900473ffffffffffffffffffffffffffffffffffffffff1673ffffffffffffffffffffffffffffffffffffffff167f8be0079c531659141344cd1fd0a4f28419497f9722a3daafe3b4186f6b6457e060405160405180910390a3600160009054906101000a900473ffffffffffffffffffffffffffffffffffffffff166000806101000a81548173ffffffffffffffffffffffffffffffffffffffff021916908373ffffffffffffffffffffffffffffffffffffffff1602179055506000600160006101000a81548173ffffffffffffffffffffffffffffffffffffffff021916908373ffffffffffffffffffffffffffffffffffffffff160217905550565b6000809054906101000a900473ffffffffffffffffffffffffffffffffffffffff1681565b600160009054906101000a900473ffffffffffffffffffffffffffffffffffffffff1681565b6000809054906101000a900473ffffffffffffffffffffffffffffffffffffffff1673ffffffffffffffffffffffffffffffffffffffff163373ffffffffffffffffffffffffffffffffffffffff161415156103c257600080fd5b80600160006101000a81548173ffffffffffffffffffffffffffffffffffffffff021916908373ffffffffffffffffffffffffffffffffffffffff1602179055505056fea165627a7a723058200a228d2791db68e1d2e16028164e94a2a9e24a42124ee464661fac8c9b2c2ef00029",
  "source": "pragma solidity >=0.5.0 <0.7.0;\n\n/**\nOwned contract\n */\ncontract Owned {\n  address payable public owner;\n  address payable public newOwner;\n\n  event OwnershipTransferred(address indexed _from, address indexed _to);\n\n  constructor () public {\n    owner = msg.sender;\n  }\n\n  modifier onlyOwner {\n    require(msg.sender == owner);\n    _;\n  }\n\n  function transferOwnership(address payable _newOwner) public onlyOwner {\n    newOwner = _newOwner;\n  }\n\n  function acceptOwnership() public {\n    require(msg.sender == newOwner);\n    emit OwnershipTransferred(owner, newOwner);\n    owner = newOwner;\n    newOwner = address(0);\n  }\n}\n\ncontract Voting is Owned{\n\n  // @nhancv: Define candidate \n  struct Candidate {\n    int8 id;\n    string name;\n    uint8 point;\n  }\n\n  // @nhancv: Candidate list\n  Candidate[] public candidateList;\n\n  // @nhancv: Event\n  event AddCandidateEvent(address indexed from, int8 candidateId);\n  event EditCandidateEvent(address indexed from, int8 candidateId);\n  event RemoveCandidateEvent(address indexed from, int8 candidateId);\n  event VoteCandidateEvent(address indexed from, int8 candidateId, bytes data);\n\n  // @nhancv: Get length of Candidate list\n  function getNumberCandidate() public view returns (uint8) {\n    return uint8(candidateList.length);\n  }\n\n  // @nhancv: Remove candidate\n  function removeCandidate(int8 candidateId) public {\n    for (uint i = 0; i < candidateList.length; i++) {\n      if (candidateList[i].id == candidateId) {\n        delete candidateList[i];\n        emit RemoveCandidateEvent(msg.sender, candidateId);\n        return;\n      }\n    }\n  }\n\n  // @nhancv: Edit candidate\n  function editCandidate(int8 candidateId, string memory name) public {\n    for (uint i = 0; i < candidateList.length; i++) {\n      if (candidateList[i].id == candidateId) {\n        candidateList[i].name = name;\n        emit EditCandidateEvent(msg.sender, candidateId);\n        return;\n      }\n    }\n  }\n\n  // @nhancv: Addition candidate\n  function addCandidate(string memory name) public {\n    Candidate memory candidate = Candidate(int8(candidateList.length), name, 0);\n    candidateList.push(candidate);\n    emit AddCandidateEvent(msg.sender, candidate.id);\n  }\n\n  // @nhancv: Get winner\n  function getWinner() public view returns (int8 candidateId) {\n    Candidate memory candidate = Candidate(-1, \"n/a\", 0);\n    for (uint i = 0; i < candidateList.length; i++) {\n      if (candidate.point < candidateList[i].point) {\n        candidate = candidateList[i];\n      }\n    }\n    return candidate.id;\n  }\n\n  // @nhancv: Vote for candidate\n  function voteCandidate(int8 candidateId) public payable returns (uint8) {\n    require(msg.value > 0, \"Value must be greater than zero\");\n    require(candidateId > -1, \"Invalid candidate id\");\n    uint i = 0;\n    for (; i < candidateList.length; i++) {\n      if (candidateList[i].id == candidateId) {\n        candidateList[i].point++;\n        \n        (bool success, bytes memory data) = owner.call.value(msg.value).gas(20317)(\"\");\n        if (!success) {\n          revert();\n        }\n\n        emit VoteCandidateEvent(msg.sender, candidateId, data);\n        return candidateList[i].point;\n      }\n    }\n    require(i < candidateList.length, \"Invalid candidate id\");\n    return 0;\n  }\n\n}\n",
  "sourcePath": "/Volumes/Data/Projects/bss/bss-blockchain-netday/truffle/VotingApp/contracts/Voting.sol",
  "compiler": {
    "name": "solc",
    "version": "0.5.0+commit.1d4f565a.Emscripten.clang"
  },
  "schemaVersion": "3.0.9",
  "updatedAt": "2019-05-17T08:10:57.615Z",
  "devdoc": {
    "methods": {}
  },
  "userdoc": {
    "methods": {},
    "notice": "Owned contract"
  }
}