{
  "contractName": "Voting",
  "abi": [
    {
      "constant": false,
      "inputs": [],
      "name": "acceptOwnership",
      "outputs": [],
      "payable": false,
      "stateMutability": "nonpayable",
      "type": "function"
    },
    {
      "constant": true,
      "inputs": [],
      "name": "owner",
      "outputs": [
        {
          "name": "",
          "type": "address"
        }
      ],
      "payable": false,
      "stateMutability": "view",
      "type": "function"
    },
    {
      "constant": true,
      "inputs": [
        {
          "name": "",
          "type": "uint256"
        }
      ],
      "name": "candidateList",
      "outputs": [
        {
          "name": "id",
          "type": "int8"
        },
        {
          "name": "name",
          "type": "string"
        },
        {
          "name": "point",
          "type": "uint8"
        }
      ],
      "payable": false,
      "stateMutability": "view",
      "type": "function"
    },
    {
      "constant": true,
      "inputs": [],
      "name": "newOwner",
      "outputs": [
        {
          "name": "",
          "type": "address"
        }
      ],
      "payable": false,
      "stateMutability": "view",
      "type": "function"
    },
    {
      "constant": false,
      "inputs": [
        {
          "name": "_newOwner",
          "type": "address"
        }
      ],
      "name": "transferOwnership",
      "outputs": [],
      "payable": false,
      "stateMutability": "nonpayable",
      "type": "function"
    },
    {
      "anonymous": false,
      "inputs": [
        {
          "indexed": true,
          "name": "from",
          "type": "address"
        },
        {
          "indexed": false,
          "name": "candidateId",
          "type": "int8"
        }
      ],
      "name": "AddCandidateEvent",
      "type": "event"
    },
    {
      "anonymous": false,
      "inputs": [
        {
          "indexed": true,
          "name": "from",
          "type": "address"
        },
        {
          "indexed": false,
          "name": "candidateId",
          "type": "int8"
        }
      ],
      "name": "EditCandidateEvent",
      "type": "event"
    },
    {
      "anonymous": false,
      "inputs": [
        {
          "indexed": true,
          "name": "from",
          "type": "address"
        },
        {
          "indexed": false,
          "name": "candidateId",
          "type": "int8"
        }
      ],
      "name": "RemoveCandidateEvent",
      "type": "event"
    },
    {
      "anonymous": false,
      "inputs": [
        {
          "indexed": true,
          "name": "from",
          "type": "address"
        },
        {
          "indexed": false,
          "name": "candidateId",
          "type": "int8"
        },
        {
          "indexed": false,
          "name": "data",
          "type": "bytes"
        }
      ],
      "name": "VoteCandidateEvent",
      "type": "event"
    },
    {
      "anonymous": false,
      "inputs": [
        {
          "indexed": true,
          "name": "_from",
          "type": "address"
        },
        {
          "indexed": true,
          "name": "_to",
          "type": "address"
        }
      ],
      "name": "OwnershipTransferred",
      "type": "event"
    },
    {
      "constant": true,
      "inputs": [],
      "name": "getNumberCandidate",
      "outputs": [
        {
          "name": "",
          "type": "uint8"
        }
      ],
      "payable": false,
      "stateMutability": "view",
      "type": "function"
    },
    {
      "constant": false,
      "inputs": [
        {
          "name": "candidateId",
          "type": "int8"
        }
      ],
      "name": "removeCandidate",
      "outputs": [],
      "payable": false,
      "stateMutability": "nonpayable",
      "type": "function"
    },
    {
      "constant": false,
      "inputs": [
        {
          "name": "candidateId",
          "type": "int8"
        },
        {
          "name": "name",
          "type": "string"
        }
      ],
      "name": "editCandidate",
      "outputs": [],
      "payable": false,
      "stateMutability": "nonpayable",
      "type": "function"
    },
    {
      "constant": false,
      "inputs": [
        {
          "name": "name",
          "type": "string"
        }
      ],
      "name": "addCandidate",
      "outputs": [],
      "payable": false,
      "stateMutability": "nonpayable",
      "type": "function"
    },
    {
      "constant": true,
      "inputs": [],
      "name": "getWinner",
      "outputs": [
        {
          "name": "candidateId",
          "type": "int8"
        }
      ],
      "payable": false,
      "stateMutability": "view",
      "type": "function"
    },
    {
      "constant": false,
      "inputs": [
        {
          "name": "candidateId",
          "type": "int8"
        }
      ],
      "name": "voteCandidate",
      "outputs": [
        {
          "name": "",
          "type": "uint8"
        }
      ],
      "payable": true,
      "stateMutability": "payable",
      "type": "function"
    }
  ],
  "bytecode": "0x6080604052336000806101000a81548173ffffffffffffffffffffffffffffffffffffffff021916908373ffffffffffffffffffffffffffffffffffffffff160217905550611357806100536000396000f3fe6080604052600436106100af576000357c0100000000000000000000000000000000000000000000000000000000900463ffffffff1680632bac931c146100b4578063462e91ec1461018957806379ba5097146102515780638da5cb5b146102685780638e7ea5b2146102bf578063b1378695146102f0578063b13c744b14610321578063bcff9f75146103ef578063d4ee1d901461042d578063f2fde38b14610484578063fe4dd7c0146104d5575b600080fd5b3480156100c057600080fd5b50610187600480360360408110156100d757600080fd5b81019080803560000b90602001909291908035906020019064010000000081111561010157600080fd5b82018360208201111561011357600080fd5b8035906020019184600183028401116401000000008311171561013557600080fd5b91908080601f016020809104026020016040519081016040528093929190818152602001838380828437600081840152601f19601f820116905080830192505050505050509192919290505050610520565b005b34801561019557600080fd5b5061024f600480360360208110156101ac57600080fd5b81019080803590602001906401000000008111156101c957600080fd5b8201836020820111156101db57600080fd5b803590602001918460018302840111640100000000831117156101fd57600080fd5b91908080601f016020809104026020016040519081016040528093929190818152602001838380828437600081840152601f19601f820116905080830192505050505050509192919290505050610610565b005b34801561025d57600080fd5b50610266610731565b005b34801561027457600080fd5b5061027d6108d0565b604051808273ffffffffffffffffffffffffffffffffffffffff1673ffffffffffffffffffffffffffffffffffffffff16815260200191505060405180910390f35b3480156102cb57600080fd5b506102d46108f5565b604051808260000b60000b815260200191505060405180910390f35b3480156102fc57600080fd5b50610305610aec565b604051808260ff1660ff16815260200191505060405180910390f35b34801561032d57600080fd5b5061035a6004803603602081101561034457600080fd5b8101908080359060200190929190505050610af9565b604051808460000b60000b8152602001806020018360ff1660ff168152602001828103825284818151815260200191508051906020019080838360005b838110156103b2578082015181840152602081019050610397565b50505050905090810190601f1680156103df5780820380516001836020036101000a031916815260200191505b5094505050505060405180910390f35b3480156103fb57600080fd5b5061042b6004803603602081101561041257600080fd5b81019080803560000b9060200190929190505050610be4565b005b34801561043957600080fd5b50610442610cf6565b604051808273ffffffffffffffffffffffffffffffffffffffff1673ffffffffffffffffffffffffffffffffffffffff16815260200191505060405180910390f35b34801561049057600080fd5b506104d3600480360360208110156104a757600080fd5b81019080803573ffffffffffffffffffffffffffffffffffffffff169060200190929190505050610d1c565b005b610504600480360360208110156104eb57600080fd5b81019080803560000b9060200190929190505050610dbb565b604051808260ff1660ff16815260200191505060405180910390f35b60008090505b60028054905081101561060a578260000b60028281548110151561054657fe5b906000526020600020906003020160000160009054906101000a900460000b60000b14156105fd578160028281548110151561057e57fe5b906000526020600020906003020160010190805190602001906105a2929190611197565b503373ffffffffffffffffffffffffffffffffffffffff167ff1ad03ea6c9207d579192d190890b3a5ad879be49fb3d8a7839c063ef28c1a6384604051808260000b60000b815260200191505060405180910390a25061060c565b8080600101915050610526565b505b5050565b610618611217565b60606040519081016040528060028054905060000b8152602001838152602001600060ff1681525090506002819080600181540180825580915050906001820390600052602060002090600302016000909192909190915060008201518160000160006101000a81548160ff021916908360000b60ff16021790555060208201518160010190805190602001906106b092919061123e565b5060408201518160020160006101000a81548160ff021916908360ff1602179055505050503373ffffffffffffffffffffffffffffffffffffffff167f4b310a58f517e5e8c0a2f4ae9848b0d57bbecd0835a1b4f0ed16c0005d80948f8260000151604051808260000b60000b815260200191505060405180910390a25050565b600160009054906101000a900473ffffffffffffffffffffffffffffffffffffffff1673ffffffffffffffffffffffffffffffffffffffff163373ffffffffffffffffffffffffffffffffffffffff1614151561078d57600080fd5b600160009054906101000a900473ffffffffffffffffffffffffffffffffffffffff1673ffffffffffffffffffffffffffffffffffffffff166000809054906101000a900473ffffffffffffffffffffffffffffffffffffffff1673ffffffffffffffffffffffffffffffffffffffff167f8be0079c531659141344cd1fd0a4f28419497f9722a3daafe3b4186f6b6457e060405160405180910390a3600160009054906101000a900473ffffffffffffffffffffffffffffffffffffffff166000806101000a81548173ffffffffffffffffffffffffffffffffffffffff021916908373ffffffffffffffffffffffffffffffffffffffff1602179055506000600160006101000a81548173ffffffffffffffffffffffffffffffffffffffff021916908373ffffffffffffffffffffffffffffffffffffffff160217905550565b6000809054906101000a900473ffffffffffffffffffffffffffffffffffffffff1681565b60006108ff611217565b6060604051908101604052807fffffffffffffffffffffffffffffffffffffffffffffffffffffffffffffffff60000b81526020016040805190810160405280600381526020017f6e2f6100000000000000000000000000000000000000000000000000000000008152508152602001600060ff16815250905060008090505b600280549050811015610ae05760028181548110151561099b57fe5b906000526020600020906003020160020160009054906101000a900460ff1660ff16826040015160ff161015610ad3576002818154811015156109da57fe5b9060005260206000209060030201606060405190810160405290816000820160009054906101000a900460000b60000b60000b8152602001600182018054600181600116156101000203166002900480601f016020809104026020016040519081016040528092919081815260200182805460018160011615610100020316600290048015610aaa5780601f10610a7f57610100808354040283529160200191610aaa565b820191906000526020600020905b815481529060010190602001808311610a8d57829003601f168201915b505050505081526020016002820160009054906101000a900460ff1660ff1660ff168152505091505b808060010191505061097f565b50806000015191505090565b6000600280549050905090565b600281815481101515610b0857fe5b90600052602060002090600302016000915090508060000160009054906101000a900460000b90806001018054600181600116156101000203166002900480601f016020809104026020016040519081016040528092919081815260200182805460018160011615610100020316600290048015610bc75780601f10610b9c57610100808354040283529160200191610bc7565b820191906000526020600020905b815481529060010190602001808311610baa57829003601f168201915b5050505050908060020160009054906101000a900460ff16905083565b60008090505b600280549050811015610cf1578160000b600282815481101515610c0a57fe5b906000526020600020906003020160000160009054906101000a900460000b60000b1415610ce457600281815481101515610c4157fe5b9060005260206000209060030201600080820160006101000a81549060ff0219169055600182016000610c7491906112be565b6002820160006101000a81549060ff021916905550503373ffffffffffffffffffffffffffffffffffffffff167f9ac72fe00b1ea4c9a9e80737039131b4d7425d2d05710cdeb106e06ca485961a83604051808260000b60000b815260200191505060405180910390a250610cf3565b8080600101915050610bea565b505b50565b600160009054906101000a900473ffffffffffffffffffffffffffffffffffffffff1681565b6000809054906101000a900473ffffffffffffffffffffffffffffffffffffffff1673ffffffffffffffffffffffffffffffffffffffff163373ffffffffffffffffffffffffffffffffffffffff16141515610d7757600080fd5b80600160006101000a81548173ffffffffffffffffffffffffffffffffffffffff021916908373ffffffffffffffffffffffffffffffffffffffff16021790555050565b60008034111515610e34576040517f08c379a000000000000000000000000000000000000000000000000000000000815260040180806020018281038252601f8152602001807f56616c7565206d7573742062652067726561746572207468616e207a65726f0081525060200191505060405180910390fd5b7fffffffffffffffffffffffffffffffffffffffffffffffffffffffffffffffff8260000b131515610ece576040517f08c379a00000000000000000000000000000000000000000000000000000000081526004018080602001828103825260148152602001807f496e76616c69642063616e64696461746520696400000000000000000000000081525060200191505060405180910390fd5b60008090505b600280549050811015611110578260000b600282815481101515610ef457fe5b906000526020600020906003020160000160009054906101000a900460000b60000b141561110357600281815481101515610f2b57fe5b9060005260206000209060030201600201600081819054906101000a900460ff168092919060010191906101000a81548160ff021916908360ff16021790555050600060606000809054906101000a900473ffffffffffffffffffffffffffffffffffffffff1673ffffffffffffffffffffffffffffffffffffffff1634614f5d90604051806000019050600060405180830381858888f193505050503d8060008114610ff4576040519150601f19603f3d011682016040523d82523d6000602084013e610ff9565b606091505b509150915081151561100a57600080fd5b3373ffffffffffffffffffffffffffffffffffffffff167fbedf2d8ed8467f818bf84371dc55ddc4e90ffcdcb2f121484adaa729dcf8d4ab8683604051808360000b60000b815260200180602001828103825283818151815260200191508051906020019080838360005b83811015611090578082015181840152602081019050611075565b50505050905090810190601f1680156110bd5780820380516001836020036101000a031916815260200191505b50935050505060405180910390a26002838154811015156110da57fe5b906000526020600020906003020160020160009054906101000a900460ff169350505050611192565b8080600101915050610ed4565b6002805490508110151561118c576040517f08c379a00000000000000000000000000000000000000000000000000000000081526004018080602001828103825260148152602001807f496e76616c69642063616e64696461746520696400000000000000000000000081525060200191505060405180910390fd5b60009150505b919050565b828054600181600116156101000203166002900490600052602060002090601f016020900481019282601f106111d857805160ff1916838001178555611206565b82800160010185558215611206579182015b828111156112055782518255916020019190600101906111ea565b5b5090506112139190611306565b5090565b6060604051908101604052806000800b815260200160608152602001600060ff1681525090565b828054600181600116156101000203166002900490600052602060002090601f016020900481019282601f1061127f57805160ff19168380011785556112ad565b828001600101855582156112ad579182015b828111156112ac578251825591602001919060010190611291565b5b5090506112ba9190611306565b5090565b50805460018160011615610100020316600290046000825580601f106112e45750611303565b601f0160209004906000526020600020908101906113029190611306565b5b50565b61132891905b8082111561132457600081600090555060010161130c565b5090565b9056fea165627a7a7230582007402ca4b43a54cd1a38b1785072bf9d6cca4f637e91b2561382481af1ba576b0029",
  "source": "pragma solidity >=0.5.0 <0.7.0;\n\n/**\nOwned contract\n */\ncontract Owned {\n  address payable public owner;\n  address payable public newOwner;\n\n  event OwnershipTransferred(address indexed _from, address indexed _to);\n\n  constructor () public {\n    owner = msg.sender;\n  }\n\n  modifier onlyOwner {\n    require(msg.sender == owner);\n    _;\n  }\n\n  function transferOwnership(address payable _newOwner) public onlyOwner {\n    newOwner = _newOwner;\n  }\n\n  function acceptOwnership() public {\n    require(msg.sender == newOwner);\n    emit OwnershipTransferred(owner, newOwner);\n    owner = newOwner;\n    newOwner = address(0);\n  }\n}\n\ncontract Voting is Owned{\n\n  // @nhancv: Define candidate \n  struct Candidate {\n    int8 id;\n    string name;\n    uint8 point;\n  }\n\n  // @nhancv: Candidate list\n  Candidate[] public candidateList;\n\n  // @nhancv: Event\n  event AddCandidateEvent(address indexed from, int8 candidateId);\n  event EditCandidateEvent(address indexed from, int8 candidateId);\n  event RemoveCandidateEvent(address indexed from, int8 candidateId);\n  event VoteCandidateEvent(address indexed from, int8 candidateId, bytes data);\n\n  // @nhancv: Get length of Candidate list\n  function getNumberCandidate() public view returns (uint8) {\n    return uint8(candidateList.length);\n  }\n\n  // @nhancv: Remove candidate\n  function removeCandidate(int8 candidateId) public {\n    for (uint i = 0; i < candidateList.length; i++) {\n      if (candidateList[i].id == candidateId) {\n        delete candidateList[i];\n        emit RemoveCandidateEvent(msg.sender, candidateId);\n        return;\n      }\n    }\n  }\n\n  // @nhancv: Edit candidate\n  function editCandidate(int8 candidateId, string memory name) public {\n    for (uint i = 0; i < candidateList.length; i++) {\n      if (candidateList[i].id == candidateId) {\n        candidateList[i].name = name;\n        emit EditCandidateEvent(msg.sender, candidateId);\n        return;\n      }\n    }\n  }\n\n  // @nhancv: Addition candidate\n  function addCandidate(string memory name) public {\n    Candidate memory candidate = Candidate(int8(candidateList.length), name, 0);\n    candidateList.push(candidate);\n    emit AddCandidateEvent(msg.sender, candidate.id);\n  }\n\n  // @nhancv: Get winner\n  function getWinner() public view returns (int8 candidateId) {\n    Candidate memory candidate = Candidate(-1, \"n/a\", 0);\n    for (uint i = 0; i < candidateList.length; i++) {\n      if (candidate.point < candidateList[i].point) {\n        candidate = candidateList[i];\n      }\n    }\n    return candidate.id;\n  }\n\n  // @nhancv: Vote for candidate\n  function voteCandidate(int8 candidateId) public payable returns (uint8) {\n    require(msg.value > 0, \"Value must be greater than zero\");\n    require(candidateId > -1, \"Invalid candidate id\");\n    uint i = 0;\n    for (; i < candidateList.length; i++) {\n      if (candidateList[i].id == candidateId) {\n        candidateList[i].point++;\n        \n        (bool success, bytes memory data) = owner.call.value(msg.value).gas(20317)(\"\");\n        if (!success) {\n          revert();\n        }\n\n        emit VoteCandidateEvent(msg.sender, candidateId, data);\n        return candidateList[i].point;\n      }\n    }\n    require(i < candidateList.length, \"Invalid candidate id\");\n    return 0;\n  }\n\n}\n",
  "sourcePath": "/Volumes/Data/Projects/bss/bss-blockchain-netday/truffle/VotingApp/contracts/Voting.sol",
  "compiler": {
    "name": "solc",
    "version": "0.5.0+commit.1d4f565a.Emscripten.clang"
  },
  "schemaVersion": "3.0.9",
  "updatedAt": "2019-05-17T08:40:39.938Z",
  "devdoc": {
    "methods": {}
  },
  "userdoc": {
    "methods": {}
  }
}