{
  "contractName": "BeeSightSoft",
  "abi": [
    {
      "constant": true,
      "inputs": [],
      "name": "name",
      "outputs": [
        {
          "name": "",
          "type": "string"
        }
      ],
      "payable": false,
      "stateMutability": "view",
      "type": "function"
    },
    {
      "constant": false,
      "inputs": [
        {
          "name": "_spender",
          "type": "address"
        },
        {
          "name": "_value",
          "type": "uint256"
        }
      ],
      "name": "approve",
      "outputs": [
        {
          "name": "success",
          "type": "bool"
        }
      ],
      "payable": false,
      "stateMutability": "nonpayable",
      "type": "function"
    },
    {
      "constant": true,
      "inputs": [],
      "name": "totalSupply",
      "outputs": [
        {
          "name": "",
          "type": "uint256"
        }
      ],
      "payable": false,
      "stateMutability": "view",
      "type": "function"
    },
    {
      "constant": false,
      "inputs": [
        {
          "name": "_from",
          "type": "address"
        },
        {
          "name": "_to",
          "type": "address"
        },
        {
          "name": "_value",
          "type": "uint256"
        }
      ],
      "name": "transferFrom",
      "outputs": [
        {
          "name": "success",
          "type": "bool"
        }
      ],
      "payable": false,
      "stateMutability": "nonpayable",
      "type": "function"
    },
    {
      "constant": true,
      "inputs": [],
      "name": "decimals",
      "outputs": [
        {
          "name": "",
          "type": "uint8"
        }
      ],
      "payable": false,
      "stateMutability": "view",
      "type": "function"
    },
    {
      "constant": false,
      "inputs": [
        {
          "name": "_value",
          "type": "uint256"
        }
      ],
      "name": "burn",
      "outputs": [
        {
          "name": "success",
          "type": "bool"
        }
      ],
      "payable": false,
      "stateMutability": "nonpayable",
      "type": "function"
    },
    {
      "constant": true,
      "inputs": [
        {
          "name": "_owner",
          "type": "address"
        }
      ],
      "name": "balanceOf",
      "outputs": [
        {
          "name": "balance",
          "type": "uint256"
        }
      ],
      "payable": false,
      "stateMutability": "view",
      "type": "function"
    },
    {
      "constant": false,
      "inputs": [],
      "name": "acceptOwnership",
      "outputs": [],
      "payable": false,
      "stateMutability": "nonpayable",
      "type": "function"
    },
    {
      "constant": false,
      "inputs": [
        {
          "name": "_from",
          "type": "address"
        },
        {
          "name": "_value",
          "type": "uint256"
        }
      ],
      "name": "burnFrom",
      "outputs": [
        {
          "name": "success",
          "type": "bool"
        }
      ],
      "payable": false,
      "stateMutability": "nonpayable",
      "type": "function"
    },
    {
      "constant": true,
      "inputs": [],
      "name": "owner",
      "outputs": [
        {
          "name": "",
          "type": "address"
        }
      ],
      "payable": false,
      "stateMutability": "view",
      "type": "function"
    },
    {
      "constant": true,
      "inputs": [],
      "name": "symbol",
      "outputs": [
        {
          "name": "",
          "type": "string"
        }
      ],
      "payable": false,
      "stateMutability": "view",
      "type": "function"
    },
    {
      "constant": false,
      "inputs": [
        {
          "name": "_to",
          "type": "address"
        },
        {
          "name": "_value",
          "type": "uint256"
        }
      ],
      "name": "transfer",
      "outputs": [
        {
          "name": "success",
          "type": "bool"
        }
      ],
      "payable": false,
      "stateMutability": "nonpayable",
      "type": "function"
    },
    {
      "constant": false,
      "inputs": [
        {
          "name": "_spender",
          "type": "address"
        },
        {
          "name": "_value",
          "type": "uint256"
        },
        {
          "name": "_extraData",
          "type": "bytes"
        }
      ],
      "name": "approveAndCall",
      "outputs": [
        {
          "name": "success",
          "type": "bool"
        }
      ],
      "payable": false,
      "stateMutability": "nonpayable",
      "type": "function"
    },
    {
      "constant": true,
      "inputs": [],
      "name": "newOwner",
      "outputs": [
        {
          "name": "",
          "type": "address"
        }
      ],
      "payable": false,
      "stateMutability": "view",
      "type": "function"
    },
    {
      "constant": false,
      "inputs": [
        {
          "name": "tokenAddress",
          "type": "address"
        },
        {
          "name": "tokens",
          "type": "uint256"
        }
      ],
      "name": "transferAnyERC20Token",
      "outputs": [
        {
          "name": "success",
          "type": "bool"
        }
      ],
      "payable": false,
      "stateMutability": "nonpayable",
      "type": "function"
    },
    {
      "constant": true,
      "inputs": [
        {
          "name": "_owner",
          "type": "address"
        },
        {
          "name": "_spender",
          "type": "address"
        }
      ],
      "name": "allowance",
      "outputs": [
        {
          "name": "remaining",
          "type": "uint256"
        }
      ],
      "payable": false,
      "stateMutability": "view",
      "type": "function"
    },
    {
      "constant": false,
      "inputs": [
        {
          "name": "_newOwner",
          "type": "address"
        }
      ],
      "name": "transferOwnership",
      "outputs": [],
      "payable": false,
      "stateMutability": "nonpayable",
      "type": "function"
    },
    {
      "inputs": [],
      "payable": false,
      "stateMutability": "nonpayable",
      "type": "constructor"
    },
    {
      "payable": true,
      "stateMutability": "payable",
      "type": "fallback"
    },
    {
      "anonymous": false,
      "inputs": [
        {
          "indexed": true,
          "name": "from",
          "type": "address"
        },
        {
          "indexed": false,
          "name": "value",
          "type": "uint256"
        }
      ],
      "name": "Burn",
      "type": "event"
    },
    {
      "anonymous": false,
      "inputs": [
        {
          "indexed": true,
          "name": "_from",
          "type": "address"
        },
        {
          "indexed": true,
          "name": "_to",
          "type": "address"
        }
      ],
      "name": "OwnershipTransferred",
      "type": "event"
    },
    {
      "anonymous": false,
      "inputs": [
        {
          "indexed": true,
          "name": "_from",
          "type": "address"
        },
        {
          "indexed": true,
          "name": "_to",
          "type": "address"
        },
        {
          "indexed": false,
          "name": "_value",
          "type": "uint256"
        }
      ],
      "name": "Transfer",
      "type": "event"
    },
    {
      "anonymous": false,
      "inputs": [
        {
          "indexed": true,
          "name": "_owner",
          "type": "address"
        },
        {
          "indexed": true,
          "name": "_spender",
          "type": "address"
        },
        {
          "indexed": false,
          "name": "_value",
          "type": "uint256"
        }
      ],
      "name": "Approval",
      "type": "event"
    }
  ],
  "bytecode": "0x60806040523480156200001157600080fd5b5033600460006101000a81548173ffffffffffffffffffffffffffffffffffffffff021916908373ffffffffffffffffffffffffffffffffffffffff1602179055506040805190810160405280600d81526020017f426565536967687420536f66740000000000000000000000000000000000000081525060009080519060200190620000a092919062000162565b506040805190810160405280600381526020017f425353000000000000000000000000000000000000000000000000000000000081525060019080519060200190620000ee92919062000162565b506000600260006101000a81548160ff021916908360ff160217905550633b9aca00600381905550600354600660003373ffffffffffffffffffffffffffffffffffffffff1673ffffffffffffffffffffffffffffffffffffffff1681526020019081526020016000208190555062000211565b828054600181600116156101000203166002900490600052602060002090601f016020900481019282601f10620001a557805160ff1916838001178555620001d6565b82800160010185558215620001d6579182015b82811115620001d5578251825591602001919060010190620001b8565b5b509050620001e59190620001e9565b5090565b6200020e91905b808211156200020a576000816000905550600101620001f0565b5090565b90565b61186c80620002216000396000f3fe6080604052600436106100f1576000357c0100000000000000000000000000000000000000000000000000000000900463ffffffff16806306fdde03146100f6578063095ea7b31461018657806318160ddd146101f957806323b872dd14610224578063313ce567146102b757806342966c68146102e857806370a082311461033b57806379ba5097146103a057806379cc6790146103b75780638da5cb5b1461042a57806395d89b4114610481578063a9059cbb14610511578063cae9ca5114610584578063d4ee1d901461068e578063dc39d06d146106e5578063dd62ed3e14610758578063f2fde38b146107dd575b600080fd5b34801561010257600080fd5b5061010b61082e565b6040518080602001828103825283818151815260200191508051906020019080838360005b8381101561014b578082015181840152602081019050610130565b50505050905090810190601f1680156101785780820380516001836020036101000a031916815260200191505b509250505060405180910390f35b34801561019257600080fd5b506101df600480360360408110156101a957600080fd5b81019080803573ffffffffffffffffffffffffffffffffffffffff169060200190929190803590602001909291905050506108cc565b604051808215151515815260200191505060405180910390f35b34801561020557600080fd5b5061020e6109be565b6040518082815260200191505060405180910390f35b34801561023057600080fd5b5061029d6004803603606081101561024757600080fd5b81019080803573ffffffffffffffffffffffffffffffffffffffff169060200190929190803573ffffffffffffffffffffffffffffffffffffffff169060200190929190803590602001909291905050506109c4565b604051808215151515815260200191505060405180910390f35b3480156102c357600080fd5b506102cc610af1565b604051808260ff1660ff16815260200191505060405180910390f35b3480156102f457600080fd5b506103216004803603602081101561030b57600080fd5b8101908080359060200190929190505050610b04565b604051808215151515815260200191505060405180910390f35b34801561034757600080fd5b5061038a6004803603602081101561035e57600080fd5b81019080803573ffffffffffffffffffffffffffffffffffffffff169060200190929190505050610c08565b6040518082815260200191505060405180910390f35b3480156103ac57600080fd5b506103b5610c51565b005b3480156103c357600080fd5b50610410600480360360408110156103da57600080fd5b81019080803573ffffffffffffffffffffffffffffffffffffffff16906020019092919080359060200190929190505050610df2565b604051808215151515815260200191505060405180910390f35b34801561043657600080fd5b5061043f61100c565b604051808273ffffffffffffffffffffffffffffffffffffffff1673ffffffffffffffffffffffffffffffffffffffff16815260200191505060405180910390f35b34801561048d57600080fd5b50610496611032565b6040518080602001828103825283818151815260200191508051906020019080838360005b838110156104d65780820151818401526020810190506104bb565b50505050905090810190601f1680156105035780820380516001836020036101000a031916815260200191505b509250505060405180910390f35b34801561051d57600080fd5b5061056a6004803603604081101561053457600080fd5b81019080803573ffffffffffffffffffffffffffffffffffffffff169060200190929190803590602001909291905050506110d0565b604051808215151515815260200191505060405180910390f35b34801561059057600080fd5b50610674600480360360608110156105a757600080fd5b81019080803573ffffffffffffffffffffffffffffffffffffffff16906020019092919080359060200190929190803590602001906401000000008111156105ee57600080fd5b82018360208201111561060057600080fd5b8035906020019184600183028401116401000000008311171561062257600080fd5b91908080601f016020809104026020016040519081016040528093929190818152602001838380828437600081840152601f19601f8201169050808301925050505050505091929192905050506110e7565b604051808215151515815260200191505060405180910390f35b34801561069a57600080fd5b506106a3611260565b604051808273ffffffffffffffffffffffffffffffffffffffff1673ffffffffffffffffffffffffffffffffffffffff16815260200191505060405180910390f35b3480156106f157600080fd5b5061073e6004803603604081101561070857600080fd5b81019080803573ffffffffffffffffffffffffffffffffffffffff16906020019092919080359060200190929190505050611286565b604051808215151515815260200191505060405180910390f35b34801561076457600080fd5b506107c76004803603604081101561077b57600080fd5b81019080803573ffffffffffffffffffffffffffffffffffffffff169060200190929190803573ffffffffffffffffffffffffffffffffffffffff1690602001909291905050506113ec565b6040518082815260200191505060405180910390f35b3480156107e957600080fd5b5061082c6004803603602081101561080057600080fd5b81019080803573ffffffffffffffffffffffffffffffffffffffff169060200190929190505050611473565b005b60008054600181600116156101000203166002900480601f0160208091040260200160405190810160405280929190818152602001828054600181600116156101000203166002900480156108c45780601f10610899576101008083540402835291602001916108c4565b820191906000526020600020905b8154815290600101906020018083116108a757829003601f168201915b505050505081565b600081600760003373ffffffffffffffffffffffffffffffffffffffff1673ffffffffffffffffffffffffffffffffffffffff16815260200190815260200160002060008573ffffffffffffffffffffffffffffffffffffffff1673ffffffffffffffffffffffffffffffffffffffff168152602001908152602001600020819055508273ffffffffffffffffffffffffffffffffffffffff163373ffffffffffffffffffffffffffffffffffffffff167f8c5be1e5ebec7d5bd14f71427d1e84f3dd0314c0f7b2291e5b200ac8c7c3b925846040518082815260200191505060405180910390a36001905092915050565b60035481565b6000600760008573ffffffffffffffffffffffffffffffffffffffff1673ffffffffffffffffffffffffffffffffffffffff16815260200190815260200160002060003373ffffffffffffffffffffffffffffffffffffffff1673ffffffffffffffffffffffffffffffffffffffff168152602001908152602001600020548211151515610a5157600080fd5b81600760008673ffffffffffffffffffffffffffffffffffffffff1673ffffffffffffffffffffffffffffffffffffffff16815260200190815260200160002060003373ffffffffffffffffffffffffffffffffffffffff1673ffffffffffffffffffffffffffffffffffffffff16815260200190815260200160002060008282540392505081905550610ae6848484611513565b600190509392505050565b600260009054906101000a900460ff1681565b600081600660003373ffffffffffffffffffffffffffffffffffffffff1673ffffffffffffffffffffffffffffffffffffffff1681526020019081526020016000205410151515610b5457600080fd5b81600660003373ffffffffffffffffffffffffffffffffffffffff1673ffffffffffffffffffffffffffffffffffffffff16815260200190815260200160002060008282540392505081905550816003600082825403925050819055503373ffffffffffffffffffffffffffffffffffffffff167fcc16f5dbb4873280815c1ee09dbd06736cffcc184412cf7a71a0fdb75d397ca5836040518082815260200191505060405180910390a260019050919050565b6000600660008373ffffffffffffffffffffffffffffffffffffffff1673ffffffffffffffffffffffffffffffffffffffff168152602001908152602001600020549050919050565b600560009054906101000a900473ffffffffffffffffffffffffffffffffffffffff1673ffffffffffffffffffffffffffffffffffffffff163373ffffffffffffffffffffffffffffffffffffffff16141515610cad57600080fd5b600560009054906101000a900473ffffffffffffffffffffffffffffffffffffffff1673ffffffffffffffffffffffffffffffffffffffff16600460009054906101000a900473ffffffffffffffffffffffffffffffffffffffff1673ffffffffffffffffffffffffffffffffffffffff167f8be0079c531659141344cd1fd0a4f28419497f9722a3daafe3b4186f6b6457e060405160405180910390a3600560009054906101000a900473ffffffffffffffffffffffffffffffffffffffff16600460006101000a81548173ffffffffffffffffffffffffffffffffffffffff021916908373ffffffffffffffffffffffffffffffffffffffff1602179055506000600560006101000a81548173ffffffffffffffffffffffffffffffffffffffff021916908373ffffffffffffffffffffffffffffffffffffffff160217905550565b600081600660008573ffffffffffffffffffffffffffffffffffffffff1673ffffffffffffffffffffffffffffffffffffffff1681526020019081526020016000205410151515610e4257600080fd5b600760008473ffffffffffffffffffffffffffffffffffffffff1673ffffffffffffffffffffffffffffffffffffffff16815260200190815260200160002060003373ffffffffffffffffffffffffffffffffffffffff1673ffffffffffffffffffffffffffffffffffffffff168152602001908152602001600020548211151515610ecd57600080fd5b81600660008573ffffffffffffffffffffffffffffffffffffffff1673ffffffffffffffffffffffffffffffffffffffff1681526020019081526020016000206000828254039250508190555081600760008573ffffffffffffffffffffffffffffffffffffffff1673ffffffffffffffffffffffffffffffffffffffff16815260200190815260200160002060003373ffffffffffffffffffffffffffffffffffffffff1673ffffffffffffffffffffffffffffffffffffffff16815260200190815260200160002060008282540392505081905550816003600082825403925050819055508273ffffffffffffffffffffffffffffffffffffffff167fcc16f5dbb4873280815c1ee09dbd06736cffcc184412cf7a71a0fdb75d397ca5836040518082815260200191505060405180910390a26001905092915050565b600460009054906101000a900473ffffffffffffffffffffffffffffffffffffffff1681565b60018054600181600116156101000203166002900480601f0160208091040260200160405190810160405280929190818152602001828054600181600116156101000203166002900480156110c85780601f1061109d576101008083540402835291602001916110c8565b820191906000526020600020905b8154815290600101906020018083116110ab57829003601f168201915b505050505081565b60006110dd338484611513565b6001905092915050565b6000808490506110f785856108cc565b508073ffffffffffffffffffffffffffffffffffffffff16638f4ffcb1338630876040518563ffffffff167c0100000000000000000000000000000000000000000000000000000000028152600401808573ffffffffffffffffffffffffffffffffffffffff1673ffffffffffffffffffffffffffffffffffffffff1681526020018481526020018373ffffffffffffffffffffffffffffffffffffffff1673ffffffffffffffffffffffffffffffffffffffff16815260200180602001828103825283818151815260200191508051906020019080838360005b838110156111ed5780820151818401526020810190506111d2565b50505050905090810190601f16801561121a5780820380516001836020036101000a031916815260200191505b5095505050505050600060405180830381600087803b15801561123c57600080fd5b505af1158015611250573d6000803e3d6000fd5b5050505060019150509392505050565b600560009054906101000a900473ffffffffffffffffffffffffffffffffffffffff1681565b6000600460009054906101000a900473ffffffffffffffffffffffffffffffffffffffff1673ffffffffffffffffffffffffffffffffffffffff163373ffffffffffffffffffffffffffffffffffffffff161415156112e457600080fd5b8273ffffffffffffffffffffffffffffffffffffffff1663a9059cbb600460009054906101000a900473ffffffffffffffffffffffffffffffffffffffff16846040518363ffffffff167c0100000000000000000000000000000000000000000000000000000000028152600401808373ffffffffffffffffffffffffffffffffffffffff1673ffffffffffffffffffffffffffffffffffffffff16815260200182815260200192505050602060405180830381600087803b1580156113a957600080fd5b505af11580156113bd573d6000803e3d6000fd5b505050506040513d60208110156113d357600080fd5b8101908080519060200190929190505050905092915050565b6000600760008473ffffffffffffffffffffffffffffffffffffffff1673ffffffffffffffffffffffffffffffffffffffff16815260200190815260200160002060008373ffffffffffffffffffffffffffffffffffffffff1673ffffffffffffffffffffffffffffffffffffffff16815260200190815260200160002054905092915050565b600460009054906101000a900473ffffffffffffffffffffffffffffffffffffffff1673ffffffffffffffffffffffffffffffffffffffff163373ffffffffffffffffffffffffffffffffffffffff161415156114cf57600080fd5b80600560006101000a81548173ffffffffffffffffffffffffffffffffffffffff021916908373ffffffffffffffffffffffffffffffffffffffff16021790555050565b600073ffffffffffffffffffffffffffffffffffffffff168273ffffffffffffffffffffffffffffffffffffffff161415151561154f57600080fd5b80600660008573ffffffffffffffffffffffffffffffffffffffff1673ffffffffffffffffffffffffffffffffffffffff168152602001908152602001600020541015151561159d57600080fd5b600660008373ffffffffffffffffffffffffffffffffffffffff1673ffffffffffffffffffffffffffffffffffffffff1681526020019081526020016000205481600660008573ffffffffffffffffffffffffffffffffffffffff1673ffffffffffffffffffffffffffffffffffffffff168152602001908152602001600020540111151561162b57600080fd5b6000600660008473ffffffffffffffffffffffffffffffffffffffff1673ffffffffffffffffffffffffffffffffffffffff16815260200190815260200160002054600660008673ffffffffffffffffffffffffffffffffffffffff1673ffffffffffffffffffffffffffffffffffffffff1681526020019081526020016000205401905081600660008673ffffffffffffffffffffffffffffffffffffffff1673ffffffffffffffffffffffffffffffffffffffff1681526020019081526020016000206000828254039250508190555081600660008573ffffffffffffffffffffffffffffffffffffffff1673ffffffffffffffffffffffffffffffffffffffff168152602001908152602001600020600082825401925050819055508273ffffffffffffffffffffffffffffffffffffffff168473ffffffffffffffffffffffffffffffffffffffff167fddf252ad1be2c89b69c2b068fc378daa952ba7f163c4a11628f55a4df523b3ef846040518082815260200191505060405180910390a380600660008573ffffffffffffffffffffffffffffffffffffffff1673ffffffffffffffffffffffffffffffffffffffff16815260200190815260200160002054600660008773ffffffffffffffffffffffffffffffffffffffff1673ffffffffffffffffffffffffffffffffffffffff168152602001908152602001600020540114151561183a57fe5b5050505056fea165627a7a723058205123afe3dade927cb51ab75d6bcaf0f221c2749ce4bd1a32014993762da25d8e0029",
  "source": "pragma solidity >=0.5.0 <0.7.0;\n\n/**\nBeeSightSoft token\n\nSymbol          : BSS\nName            : BeeSightSoft\nTotal supply    : 1000000000\nDecimals        : 0\n\n@ beesightsoft MIT license\n */\n\n// ---------------------------------------------------------------------\n// ERC-20 Token Standard Interface\n// https://github.com/ethereum/EIPs/blob/master/EIPS/eip-20.md\n// ---------------------------------------------------------------------\ncontract ERC20Interface {\n  /**\n  Returns the name of the token - e.g. \"MyToken\"\n   */\n  string public name;\n  /**\n  Returns the symbol of the token. E.g. \"HIX\".\n   */\n  string public symbol;\n  /**\n  Returns the number of decimals the token uses - e. g. 8\n   */\n  uint8 public decimals;\n  /**\n  Returns the total token supply.\n   */\n  uint256 public totalSupply;\n  /**\n  Returns the account balance of another account with address _owner.\n   */\n  function balanceOf(address _owner) public view returns (uint256 balance);\n  /**\n  Transfers _value amount of tokens to address _to, and MUST fire the Transfer event. \n  The function SHOULD throw if the _from account balance does not have enough tokens to spend.\n   */\n  function transfer(address _to, uint256 _value) public returns (bool success);\n  /**\n  Transfers _value amount of tokens from address _from to address _to, and MUST fire the Transfer event.\n   */\n  function transferFrom(address _from, address _to, uint256 _value) public returns (bool success);\n  /**\n  Allows _spender to withdraw from your account multiple times, up to the _value amount. \n  If this function is called again it overwrites the current allowance with _value.\n   */\n  function approve(address _spender, uint256 _value) public returns (bool success);\n  /**\n  Returns the amount which _spender is still allowed to withdraw from _owner.\n   */\n  function allowance(address _owner, address _spender) public view returns (uint256 remaining);\n  /**\n  MUST trigger when tokens are transferred, including zero value transfers.\n   */\n  event Transfer(address indexed _from, address indexed _to, uint256 _value);\n  /**\n  MUST trigger on any successful call to approve(address _spender, uint256 _value).\n    */\n  event Approval(address indexed _owner, address indexed _spender, uint256 _value);\n}\n\n/**\nOwned contract\n */\ncontract Owned {\n  address public owner;\n  address public newOwner;\n\n  event OwnershipTransferred(address indexed _from, address indexed _to);\n\n  constructor () public {\n    owner = msg.sender;\n  }\n\n  modifier onlyOwner {\n    require(msg.sender == owner);\n    _;\n  }\n\n  function transferOwnership(address _newOwner) public onlyOwner {\n    newOwner = _newOwner;\n  }\n\n  function acceptOwnership() public {\n    require(msg.sender == newOwner);\n    emit OwnershipTransferred(owner, newOwner);\n    owner = newOwner;\n    newOwner = address(0);\n  }\n}\n\n/**\nFunction to receive approval and execute function in one call.\n */\ncontract TokenRecipient { \n  function receiveApproval(address _from, uint256 _value, address _token, bytes memory _extraData) public; \n}\n\n/**\nToken implement\n */\ncontract Token is ERC20Interface, Owned {\n\n  mapping (address => uint256) _balances;\n  mapping (address => mapping (address => uint256)) _allowed;\n  \n  // This notifies clients about the amount burnt\n  event Burn(address indexed from, uint256 value);\n  \n  function balanceOf(address _owner) public view returns (uint256 balance) {\n    return _balances[_owner];\n  }\n\n  function transfer(address _to, uint256 _value) public returns (bool success) {\n    _transfer(msg.sender, _to, _value);\n    return true;\n  }\n\n  function transferFrom(address _from, address _to, uint256 _value) public returns (bool success) {\n    require(_value <= _allowed[_from][msg.sender]); \n    _allowed[_from][msg.sender] -= _value;\n    _transfer(_from, _to, _value);\n    return true;\n  }\n\n  function approve(address _spender, uint256 _value) public returns (bool success) {\n    _allowed[msg.sender][_spender] = _value;\n    emit Approval(msg.sender, _spender, _value);\n    return true;\n  }\n\n  function allowance(address _owner, address _spender) public view returns (uint256 remaining) {\n    return _allowed[_owner][_spender];\n  }\n\n  /**\n  Owner can transfer out any accidentally sent ERC20 tokens\n   */\n  function transferAnyERC20Token(address tokenAddress, uint tokens) public onlyOwner returns (bool success) {\n    return ERC20Interface(tokenAddress).transfer(owner, tokens);\n  }\n\n  /**\n  Approves and then calls the receiving contract\n   */\n  function approveAndCall(address _spender, uint256 _value, bytes memory _extraData) public returns (bool success) {\n    TokenRecipient spender = TokenRecipient(_spender);\n    approve(_spender, _value);\n    spender.receiveApproval(msg.sender, _value, address(this), _extraData);\n    return true;\n  }\n\n  /**\n  Destroy tokens.\n  Remove `_value` tokens from the system irreversibly\n    */\n  function burn(uint256 _value) public returns (bool success) {\n    require(_balances[msg.sender] >= _value);\n    _balances[msg.sender] -= _value;\n    totalSupply -= _value;\n    emit Burn(msg.sender, _value);\n    return true;\n  }\n\n  /**\n  Destroy tokens from other account.\n  Remove `_value` tokens from the system irreversibly on behalf of `_from`.\n    */\n  function burnFrom(address _from, uint256 _value) public returns (bool success) {\n    require(_balances[_from] >= _value);\n    require(_value <= _allowed[_from][msg.sender]);\n    _balances[_from] -= _value;\n    _allowed[_from][msg.sender] -= _value;\n    totalSupply -= _value;\n    emit Burn(_from, _value);\n    return true;\n  }\n\n  /**\n  Internal transfer, only can be called by this contract\n    */\n  function _transfer(address _from, address _to, uint _value) internal {\n    // Prevent transfer to 0x0 address. Use burn() instead\n    require(_to != address(0x0));\n    // Check if the sender has enough\n    require(_balances[_from] >= _value);\n    // Check for overflows\n    require(_balances[_to] + _value > _balances[_to]);\n    // Save this for an assertion in the future\n    uint previousBalances = _balances[_from] + _balances[_to];\n    // Subtract from the sender\n    _balances[_from] -= _value;\n    // Add the same to the recipient\n    _balances[_to] += _value;\n    emit Transfer(_from, _to, _value);\n    // Asserts are used to use static analysis to find bugs in your code. They should never fail\n    assert(_balances[_from] + _balances[_to] == previousBalances);\n  }\n\n}\n\ncontract BeeSightSoft is Token {\n\n  constructor () public {\n    name = \"BeeSight Soft\";\n    symbol = \"BSS\";\n    decimals = 0;\n    totalSupply = 1000000000;\n    _balances[msg.sender] = totalSupply;\n  }\n\n  /**\n  If ether is sent to this address, send it back.\n   */\n  function () external payable {\n    revert();\n  }\n\n}",
  "sourcePath": "/Volumes/Data/Projects/bss/bss-blockchain-netday/truffle/beesightsoftcoin/contracts/BeeSightSoft.sol",
  "compiler": {
    "name": "solc",
    "version": "0.5.0+commit.1d4f565a.Emscripten.clang"
  },
  "schemaVersion": "3.0.9",
  "updatedAt": "2019-05-16T12:14:44.948Z",
  "devdoc": {
    "methods": {}
  },
  "userdoc": {
    "methods": {
      "approveAndCall(address,uint256,bytes)": {
        "notice": "Approves and then calls the receiving contract"
      },
      "burn(uint256)": {
        "notice": "Destroy tokens. Remove `_value` tokens from the system irreversibly"
      },
      "burnFrom(address,uint256)": {
        "notice": "Destroy tokens from other account. Remove `_value` tokens from the system irreversibly on behalf of `_from`."
      },
      "transferAnyERC20Token(address,uint256)": {
        "notice": "Owner can transfer out any accidentally sent ERC20 tokens"
      }
    }
  }
}